{
  "contractName": "packageTracker",
  "abi": [
    {
      "constant": true,
      "inputs": [
        {
          "name": "",
          "type": "address"
        }
      ],
      "name": "memberList",
      "outputs": [
        {
          "name": "typeMember",
          "type": "string"
        },
        {
          "name": "nameMember",
          "type": "string"
        },
        {
          "name": "infoName",
          "type": "string"
        },
        {
          "name": "countPackOwner",
          "type": "uint256"
        },
        {
          "name": "countPackLogistic",
          "type": "uint256"
        },
        {
          "name": "isMember",
          "type": "bool"
        }
      ],
      "payable": false,
      "stateMutability": "view",
      "type": "function"
    },
    {
      "constant": true,
      "inputs": [
        {
          "name": "",
          "type": "uint256"
        }
      ],
      "name": "packageList",
      "outputs": [
        {
          "name": "owner",
          "type": "address"
        },
        {
          "name": "ofSensor",
          "type": "address"
        },
        {
          "name": "logictis",
          "type": "address"
        },
        {
          "name": "namePack",
          "type": "string"
        },
        {
          "name": "infoPack",
          "type": "string"
        },
        {
          "name": "countState",
          "type": "uint256"
        },
        {
          "name": "countEvents",
          "type": "uint256"
        },
        {
          "name": "checkPack",
          "type": "bool"
        },
        {
          "name": "isReal",
          "type": "bool"
        }
      ],
      "payable": false,
      "stateMutability": "view",
      "type": "function"
    },
    {
      "constant": true,
      "inputs": [
        {
          "name": "",
          "type": "uint256"
        }
      ],
      "name": "eventList",
      "outputs": [
        {
          "name": "pIdTrack",
          "type": "uint256"
        },
        {
          "name": "typeEnvoriment",
          "type": "string"
        },
        {
          "name": "valueEnvoriment",
          "type": "uint256"
        },
        {
          "name": "long",
          "type": "int256"
        },
        {
          "name": "lat",
          "type": "int256"
        },
        {
          "name": "blockNumber",
          "type": "uint256"
        },
        {
          "name": "tracker",
          "type": "address"
        }
      ],
      "payable": false,
      "stateMutability": "view",
      "type": "function"
    },
    {
      "constant": true,
      "inputs": [
        {
          "name": "",
          "type": "uint256"
        },
        {
          "name": "",
          "type": "address"
        }
      ],
      "name": "packOfOwnerList",
      "outputs": [
        {
          "name": "",
          "type": "uint256"
        }
      ],
      "payable": false,
      "stateMutability": "view",
      "type": "function"
    },
    {
      "constant": true,
      "inputs": [
        {
          "name": "",
          "type": "uint256"
        }
      ],
      "name": "stateList",
      "outputs": [
        {
          "name": "pIdstate",
          "type": "uint256"
        },
        {
          "name": "statePack",
          "type": "string"
        },
        {
          "name": "blockStart",
          "type": "uint256"
        },
        {
          "name": "blockEnd",
          "type": "uint256"
        },
        {
          "name": "getterState",
          "type": "address"
        }
      ],
      "payable": false,
      "stateMutability": "view",
      "type": "function"
    },
    {
      "constant": true,
      "inputs": [
        {
          "name": "",
          "type": "address"
        }
      ],
      "name": "sensorList",
      "outputs": [
        {
          "name": "sId",
          "type": "uint256"
        },
        {
          "name": "infoSensor",
          "type": "string"
        },
        {
          "name": "isSensor",
          "type": "bool"
        }
      ],
      "payable": false,
      "stateMutability": "view",
      "type": "function"
    },
    {
      "inputs": [],
      "payable": false,
      "stateMutability": "nonpayable",
      "type": "constructor"
    },
    {
      "anonymous": false,
      "inputs": [
        {
          "indexed": false,
          "name": "_ower",
          "type": "address"
        },
        {
          "indexed": false,
          "name": "_namePack",
          "type": "string"
        },
        {
          "indexed": false,
          "name": "_infoPack",
          "type": "string"
        }
      ],
      "name": "create_package",
      "type": "event"
    },
    {
      "anonymous": false,
      "inputs": [
        {
          "indexed": false,
          "name": "_ower",
          "type": "address"
        },
        {
          "indexed": false,
          "name": "_logictis",
          "type": "address"
        },
        {
          "indexed": false,
          "name": "_namePack",
          "type": "string"
        },
        {
          "indexed": false,
          "name": "_message",
          "type": "string"
        }
      ],
      "name": "transport_package",
      "type": "event"
    },
    {
      "anonymous": false,
      "inputs": [
        {
          "indexed": false,
          "name": "_ower",
          "type": "address"
        },
        {
          "indexed": false,
          "name": "_namePack",
          "type": "string"
        },
        {
          "indexed": false,
          "name": "_message",
          "type": "string"
        }
      ],
      "name": "sell_package",
      "type": "event"
    },
    {
      "constant": false,
      "inputs": [
        {
          "name": "_addrMember",
          "type": "address"
        },
        {
          "name": "_typeMember",
          "type": "string"
        },
        {
          "name": "_nameMember",
          "type": "string"
        },
        {
          "name": "_infoMember",
          "type": "string"
        }
      ],
      "name": "createMember",
      "outputs": [],
      "payable": false,
      "stateMutability": "nonpayable",
      "type": "function"
    },
    {
      "constant": false,
      "inputs": [
        {
          "name": "_addrMember",
          "type": "address"
        }
      ],
      "name": "deleteMember",
      "outputs": [],
      "payable": false,
      "stateMutability": "nonpayable",
      "type": "function"
    },
    {
      "constant": true,
      "inputs": [],
      "name": "getNumberOfMember",
      "outputs": [
        {
          "name": "",
          "type": "uint256"
        }
      ],
      "payable": false,
      "stateMutability": "view",
      "type": "function"
    },
    {
      "constant": false,
      "inputs": [
        {
          "name": "_addrSensor",
          "type": "address"
        },
        {
          "name": "_sId",
          "type": "uint256"
        },
        {
          "name": "_infoSensor",
          "type": "string"
        }
      ],
      "name": "createSensor",
      "outputs": [],
      "payable": false,
      "stateMutability": "nonpayable",
      "type": "function"
    },
    {
      "constant": false,
      "inputs": [
        {
          "name": "_addrSensor",
          "type": "address"
        }
      ],
      "name": "deleteSensor",
      "outputs": [],
      "payable": false,
      "stateMutability": "nonpayable",
      "type": "function"
    },
    {
      "constant": true,
      "inputs": [],
      "name": "getNumberOfSensor",
      "outputs": [
        {
          "name": "",
          "type": "uint256"
        }
      ],
      "payable": false,
      "stateMutability": "view",
      "type": "function"
    },
    {
      "constant": false,
      "inputs": [
        {
          "name": "_pId",
          "type": "uint256"
        },
        {
          "name": "_namePack",
          "type": "string"
        },
        {
          "name": "_infoPack",
          "type": "string"
        }
      ],
      "name": "createPackage",
      "outputs": [],
      "payable": false,
      "stateMutability": "nonpayable",
      "type": "function"
    },
    {
      "constant": true,
      "inputs": [
        {
          "name": "_mId",
          "type": "address"
        }
      ],
      "name": "getPackOfOwner",
      "outputs": [
        {
          "name": "",
          "type": "uint256[]"
        }
      ],
      "payable": false,
      "stateMutability": "view",
      "type": "function"
    },
    {
      "constant": true,
      "inputs": [],
      "name": "getNumberOfPackage",
      "outputs": [
        {
          "name": "",
          "type": "uint256"
        }
      ],
      "payable": false,
      "stateMutability": "view",
      "type": "function"
    },
    {
      "constant": false,
      "inputs": [
        {
          "name": "_pIdTrack",
          "type": "uint256"
        },
        {
          "name": "_typeEnv",
          "type": "string"
        },
        {
          "name": "_valueEnv",
          "type": "uint256"
        },
        {
          "name": "_long",
          "type": "int256"
        },
        {
          "name": "_lat",
          "type": "int256"
        }
      ],
      "name": "createEvent",
      "outputs": [],
      "payable": false,
      "stateMutability": "nonpayable",
      "type": "function"
    },
    {
      "constant": true,
      "inputs": [
        {
          "name": "_pId",
          "type": "uint256"
        }
      ],
      "name": "getEventsOfPack",
      "outputs": [
        {
          "name": "",
          "type": "uint256[]"
        }
      ],
      "payable": false,
      "stateMutability": "view",
      "type": "function"
    },
    {
      "constant": true,
      "inputs": [],
      "name": "getTotalOfEvent",
      "outputs": [
        {
          "name": "",
          "type": "uint256"
        }
      ],
      "payable": false,
      "stateMutability": "view",
      "type": "function"
    },
    {
      "constant": false,
      "inputs": [
        {
          "name": "_pIdState",
          "type": "uint256"
        },
        {
          "name": "_state",
          "type": "string"
        }
      ],
      "name": "changeState",
      "outputs": [],
      "payable": false,
      "stateMutability": "nonpayable",
      "type": "function"
    },
    {
      "constant": true,
      "inputs": [
        {
          "name": "_pId",
          "type": "uint256"
        }
      ],
      "name": "getStatesOfPack",
      "outputs": [
        {
          "name": "",
          "type": "uint256[]"
        }
      ],
      "payable": false,
      "stateMutability": "view",
      "type": "function"
    },
    {
      "constant": true,
      "inputs": [
        {
          "name": "_pId",
          "type": "uint256"
        }
      ],
      "name": "getLastState",
      "outputs": [
        {
          "name": "",
          "type": "uint256"
        }
      ],
      "payable": false,
      "stateMutability": "view",
      "type": "function"
    },
    {
      "constant": true,
      "inputs": [],
      "name": "getTotalOfState",
      "outputs": [
        {
          "name": "",
          "type": "uint256"
        }
      ],
      "payable": false,
      "stateMutability": "view",
      "type": "function"
    },
    {
      "constant": false,
      "inputs": [
        {
          "name": "_toOwner",
          "type": "address"
        },
        {
          "name": "_pid",
          "type": "uint256"
        }
      ],
      "name": "changeOwner",
      "outputs": [],
      "payable": false,
      "stateMutability": "nonpayable",
      "type": "function"
    },
    {
      "constant": false,
      "inputs": [
        {
          "name": "_toSensor",
          "type": "address"
        },
        {
          "name": "_pid",
          "type": "uint256"
        }
      ],
      "name": "changeSensor",
      "outputs": [],
      "payable": false,
      "stateMutability": "nonpayable",
      "type": "function"
    },
    {
      "constant": false,
      "inputs": [
        {
          "name": "_toLogictis",
          "type": "address"
        },
        {
          "name": "_pid",
          "type": "uint256"
        }
      ],
      "name": "changeLogictis",
      "outputs": [],
      "payable": false,
      "stateMutability": "nonpayable",
      "type": "function"
    },
    {
      "constant": false,
      "inputs": [
        {
          "name": "_pId",
          "type": "uint256"
        },
        {
          "name": "_check",
          "type": "bool"
        },
        {
          "name": "_message",
          "type": "string"
        }
      ],
      "name": "checkPackage",
      "outputs": [],
      "payable": false,
      "stateMutability": "nonpayable",
      "type": "function"
    }
  ],
  "bytecode": "0x608060405234801561001057600080fd5b50613224806100206000396000f300608060405260043610610154576000357c0100000000000000000000000000000000000000000000000000000000900463ffffffff16806305ae35921461015957806311ffb1d41461030657806314c72582146103495780631e97c224146105185780631f5e23d51461059a578063297da7d41461062b57806331e05361146106785780633b2bdeff1461073157806341f1aaa214610846578063493280d21461087157806351455e501461096d5780635184790b146109ce57806356df3db114610a11578063593ade9614610a5e5780636418729314610af1578063655f0b0414610bdf578063678395af14610cad5780638184c61214610cd8578063a9d32d4814610d03578063ad6551c814610d82578063b222437e14610dad578063bafb96d714610dee578063c2ac2f8d14610e19578063d249d38a14610e66578063e62c595214610ee8578063f7e4601914610f5b575b600080fd5b34801561016557600080fd5b5061019a600480360381019080803573ffffffffffffffffffffffffffffffffffffffff169060200190929190505050610ff3565b604051808060200180602001806020018781526020018681526020018515151515815260200184810384528a818151815260200191508051906020019080838360005b838110156101f85780820151818401526020810190506101dd565b50505050905090810190601f1680156102255780820380516001836020036101000a031916815260200191505b50848103835289818151815260200191508051906020019080838360005b8381101561025e578082015181840152602081019050610243565b50505050905090810190601f16801561028b5780820380516001836020036101000a031916815260200191505b50848103825288818151815260200191508051906020019080838360005b838110156102c45780820151818401526020810190506102a9565b50505050905090810190601f1680156102f15780820380516001836020036101000a031916815260200191505b50995050505050505050505060405180910390f35b34801561031257600080fd5b50610347600480360381019080803573ffffffffffffffffffffffffffffffffffffffff169060200190929190505050611204565b005b34801561035557600080fd5b5061037460048036038101908080359060200190929190505050611379565b604051808a73ffffffffffffffffffffffffffffffffffffffff1673ffffffffffffffffffffffffffffffffffffffff1681526020018973ffffffffffffffffffffffffffffffffffffffff1673ffffffffffffffffffffffffffffffffffffffff1681526020018873ffffffffffffffffffffffffffffffffffffffff1673ffffffffffffffffffffffffffffffffffffffff16815260200180602001806020018781526020018681526020018515151515815260200184151515158152602001838103835289818151815260200191508051906020019080838360005b8381101561046e578082015181840152602081019050610453565b50505050905090810190601f16801561049b5780820380516001836020036101000a031916815260200191505b50838103825288818151815260200191508051906020019080838360005b838110156104d45780820151818401526020810190506104b9565b50505050905090810190601f1680156105015780820380516001836020036101000a031916815260200191505b509b50505050505050505050505060405180910390f35b34801561052457600080fd5b5061054360048036038101908080359060200190929190505050611571565b6040518080602001828103825283818151815260200191508051906020019060200280838360005b8381101561058657808201518184015260208101905061056b565b505050509050019250505060405180910390f35b3480156105a657600080fd5b5061062960048036038101908080359060200190929190803590602001908201803590602001908080601f0160208091040260200160405190810160405280939291908181526020018383808284378201915050505050509192919290803590602001909291908035906020019092919080359060200190929190505050611636565b005b34801561063757600080fd5b50610676600480360381019080803573ffffffffffffffffffffffffffffffffffffffff1690602001909291908035906020019092919050505061176d565b005b34801561068457600080fd5b5061072f60048036038101908080359060200190929190803590602001908201803590602001908080601f0160208091040260200160405190810160405280939291908181526020018383808284378201915050505050509192919290803590602001908201803590602001908080601f01602080910402602001604051908101604052809392919081815260200183838082843782019150505050505091929192905050506119fb565b005b34801561073d57600080fd5b50610844600480360381019080803573ffffffffffffffffffffffffffffffffffffffff169060200190929190803590602001908201803590602001908080601f0160208091040260200160405190810160405280939291908181526020018383808284378201915050505050509192919290803590602001908201803590602001908080601f0160208091040260200160405190810160405280939291908181526020018383808284378201915050505050509192919290803590602001908201803590602001908080601f0160208091040260200160405190810160405280939291908181526020018383808284378201915050505050509192919290505050611e93565b005b34801561085257600080fd5b5061085b61209b565b6040518082815260200191505060405180910390f35b34801561087d57600080fd5b5061089c600480360381019080803590602001909291905050506120a5565b60405180888152602001806020018781526020018681526020018581526020018481526020018373ffffffffffffffffffffffffffffffffffffffff1673ffffffffffffffffffffffffffffffffffffffff168152602001828103825288818151815260200191508051906020019080838360005b8381101561092c578082015181840152602081019050610911565b50505050905090810190601f1680156109595780820380516001836020036101000a031916815260200191505b509850505050505050505060405180910390f35b34801561097957600080fd5b506109b860048036038101908080359060200190929190803573ffffffffffffffffffffffffffffffffffffffff16906020019092919050505061219f565b6040518082815260200191505060405180910390f35b3480156109da57600080fd5b50610a0f600480360381019080803573ffffffffffffffffffffffffffffffffffffffff1690602001909291905050506121c4565b005b348015610a1d57600080fd5b50610a5c600480360381019080803573ffffffffffffffffffffffffffffffffffffffff16906020019092919080359060200190929190505050612312565b005b348015610a6a57600080fd5b50610aef600480360381019080803573ffffffffffffffffffffffffffffffffffffffff16906020019092919080359060200190929190803590602001908201803590602001908080601f016020809104026020016040519081016040528093929190818152602001838380828437820191505050505050919291929050505061255a565b005b348015610afd57600080fd5b50610b1c600480360381019080803590602001909291905050506126e5565b60405180868152602001806020018581526020018481526020018373ffffffffffffffffffffffffffffffffffffffff1673ffffffffffffffffffffffffffffffffffffffff168152602001828103825286818151815260200191508051906020019080838360005b83811015610ba0578082015181840152602081019050610b85565b50505050905090810190601f168015610bcd5780820380516001836020036101000a031916815260200191505b50965050505050505060405180910390f35b348015610beb57600080fd5b50610c20600480360381019080803573ffffffffffffffffffffffffffffffffffffffff1690602001909291905050506127d3565b604051808481526020018060200183151515158152602001828103825284818151815260200191508051906020019080838360005b83811015610c70578082015181840152602081019050610c55565b50505050905090810190601f168015610c9d5780820380516001836020036101000a031916815260200191505b5094505050505060405180910390f35b348015610cb957600080fd5b50610cc26128a2565b6040518082815260200191505060405180910390f35b348015610ce457600080fd5b50610ced6128ac565b6040518082815260200191505060405180910390f35b348015610d0f57600080fd5b50610d8060048036038101908080359060200190929190803515159060200190929190803590602001908201803590602001908080601f01602080910402602001604051908101604052809392919081815260200183838082843782019150505050505091929192905050506128b6565b005b348015610d8e57600080fd5b50610d976129e3565b6040518082815260200191505060405180910390f35b348015610db957600080fd5b50610dd8600480360381019080803590602001909291905050506129ed565b6040518082815260200191505060405180910390f35b348015610dfa57600080fd5b50610e03612a3a565b6040518082815260200191505060405180910390f35b348015610e2557600080fd5b50610e64600480360381019080803573ffffffffffffffffffffffffffffffffffffffff16906020019092919080359060200190929190505050612a44565b005b348015610e7257600080fd5b50610e9160048036038101908080359060200190929190505050612c8d565b6040518080602001828103825283818151815260200191508051906020019060200280838360005b83811015610ed4578082015181840152602081019050610eb9565b505050509050019250505060405180910390f35b348015610ef457600080fd5b50610f5960048036038101908080359060200190929190803590602001908201803590602001908080601f0160208091040260200160405190810160405280939291908181526020018383808284378201915050505050509192919290505050612d52565b005b348015610f6757600080fd5b50610f9c600480360381019080803573ffffffffffffffffffffffffffffffffffffffff169060200190929190505050612f90565b6040518080602001828103825283818151815260200191508051906020019060200280838360005b83811015610fdf578082015181840152602081019050610fc4565b505050509050019250505060405180910390f35b6000602052806000526040600020600091509050806000018054600181600116156101000203166002900480601f01602080910402602001604051908101604052809291908181526020018280546001816001161561010002031660029004801561109f5780601f106110745761010080835404028352916020019161109f565b820191906000526020600020905b81548152906001019060200180831161108257829003601f168201915b505050505090806001018054600181600116156101000203166002900480601f01602080910402602001604051908101604052809291908181526020018280546001816001161561010002031660029004801561113d5780601f106111125761010080835404028352916020019161113d565b820191906000526020600020905b81548152906001019060200180831161112057829003601f168201915b505050505090806002018054600181600116156101000203166002900480601f0160208091040260200160405190810160405280929190818152602001828054600181600116156101000203166002900480156111db5780601f106111b0576101008083540402835291602001916111db565b820191906000526020600020905b8154815290600101906020018083116111be57829003601f168201915b5050505050908060030154908060040154908060050160009054906101000a900460ff16905086565b600115156000808373ffffffffffffffffffffffffffffffffffffffff1673ffffffffffffffffffffffffffffffffffffffff16815260200190815260200160002060050160009054906101000a900460ff1615151415156112ce576040517f08c379a000000000000000000000000000000000000000000000000000000000815260040180806020018281038252601e8152602001807f5468c3a06e68207669c3aa6e206368c6b0612074e1bb936e2074e1baa169000081525060200191505060405180910390fd5b600160008154809291906001900391905055506000808273ffffffffffffffffffffffffffffffffffffffff1673ffffffffffffffffffffffffffffffffffffffff16815260200190815260200160002060008082016000611330919061310b565b600182016000611340919061310b565b600282016000611350919061310b565b600382016000905560048201600090556005820160006101000a81549060ff0219169055505050565b60046020528060005260406000206000915090508060000160009054906101000a900473ffffffffffffffffffffffffffffffffffffffff16908060010160009054906101000a900473ffffffffffffffffffffffffffffffffffffffff16908060020160009054906101000a900473ffffffffffffffffffffffffffffffffffffffff1690806003018054600181600116156101000203166002900480601f0160208091040260200160405190810160405280929190818152602001828054600181600116156101000203166002900480156114975780601f1061146c57610100808354040283529160200191611497565b820191906000526020600020905b81548152906001019060200180831161147a57829003601f168201915b505050505090806004018054600181600116156101000203166002900480601f0160208091040260200160405190810160405280929190818152602001828054600181600116156101000203166002900480156115355780601f1061150a57610100808354040283529160200191611535565b820191906000526020600020905b81548152906001019060200180831161151857829003601f168201915b5050505050908060050154908060060154908060070160009054906101000a900460ff16908060070160019054906101000a900460ff16905089565b60606000606060008060046000878152602001908152602001600020600501549350836040519080825280602002602001820160405280156115c25781602001602082028038833980820191505090505b50925060009150600090505b600b548111151561162a5785600a600083815260200190815260200160002060000154141561161d5780838381518110151561160657fe5b906020019060200201818152505081806001019250505b80806001019150506115ce565b82945050505050919050565b60096000815480929190600101919050555060e0604051908101604052808681526020018581526020018481526020018381526020018281526020014381526020013373ffffffffffffffffffffffffffffffffffffffff168152506008600060095481526020019081526020016000206000820151816000015560208201518160010190805190602001906116cd929190613153565b5060408201518160020155606082015181600301556080820151816004015560a0820151816005015560c08201518160060160006101000a81548173ffffffffffffffffffffffffffffffffffffffff021916908373ffffffffffffffffffffffffffffffffffffffff16021790555090505060046000868152602001908152602001600020600601600081548092919060010191905055505050505050565b3373ffffffffffffffffffffffffffffffffffffffff166004600083815260200190815260200160002060000160009054906101000a900473ffffffffffffffffffffffffffffffffffffffff1673ffffffffffffffffffffffffffffffffffffffff16148061183e57503373ffffffffffffffffffffffffffffffffffffffff166004600083815260200190815260200160002060020160009054906101000a900473ffffffffffffffffffffffffffffffffffffffff1673ffffffffffffffffffffffffffffffffffffffff16145b15156118b2576040517f08c379a00000000000000000000000000000000000000000000000000000000081526004018080602001828103825260198152602001807f4b68c3b46e672063c3b320717579e1bb816e20c491e1bb95690000000000000081525060200191505060405180910390fd5b600115156000803373ffffffffffffffffffffffffffffffffffffffff1673ffffffffffffffffffffffffffffffffffffffff16815260200190815260200160002060050160009054906101000a900460ff1615151415156119a2576040517f08c379a00000000000000000000000000000000000000000000000000000000081526004018080602001828103825260228152602001807f4368e1bb892063687579e1bb836e20c491e1babf6e207468c3a06e68207669c381526020017faa6e00000000000000000000000000000000000000000000000000000000000081525060400191505060405180910390fd5b816004600083815260200190815260200160002060000160006101000a81548173ffffffffffffffffffffffffffffffffffffffff021916908373ffffffffffffffffffffffffffffffffffffffff1602179055505050565b600115156004600085815260200190815260200160002060070160019054906101000a900460ff16151514151515611a9b576040517f08c379a000000000000000000000000000000000000000000000000000000000815260040180806020018281038252601d8152602001807f4dc3a32068c3a06e672068c3b361206cc3a020647579206e68e1baa57400000081525060200191505060405180910390fd5b600560008154809291906001019190505550610120604051908101604052803373ffffffffffffffffffffffffffffffffffffffff168152602001600073ffffffffffffffffffffffffffffffffffffffff168152602001600073ffffffffffffffffffffffffffffffffffffffff1681526020018381526020018281526020016001815260200160018152602001600115158152602001600115158152506004600085815260200190815260200160002060008201518160000160006101000a81548173ffffffffffffffffffffffffffffffffffffffff021916908373ffffffffffffffffffffffffffffffffffffffff16021790555060208201518160010160006101000a81548173ffffffffffffffffffffffffffffffffffffffff021916908373ffffffffffffffffffffffffffffffffffffffff16021790555060408201518160020160006101000a81548173ffffffffffffffffffffffffffffffffffffffff021916908373ffffffffffffffffffffffffffffffffffffffff1602179055506060820151816003019080519060200190611c3e929190613153565b506080820151816004019080519060200190611c5b929190613153565b5060a0820151816005015560c0820151816006015560e08201518160070160006101000a81548160ff0219169083151502179055506101008201518160070160016101000a81548160ff021916908315150217905550905050600b6000815480929190600101919050555060a0604051908101604052808481526020016040805190810160405280600c81526020017f4b68e1bb9f692074e1baa16f00000000000000000000000000000000000000008152508152602001438152602001600081526020013373ffffffffffffffffffffffffffffffffffffffff16815250600a6000600b548152602001908152602001600020600082015181600001556020820151816001019080519060200190611d75929190613153565b50604082015181600201556060820151816003015560808201518160040160006101000a81548173ffffffffffffffffffffffffffffffffffffffff021916908373ffffffffffffffffffffffffffffffffffffffff1602179055509050506000803373ffffffffffffffffffffffffffffffffffffffff1673ffffffffffffffffffffffffffffffffffffffff168152602001908152602001600020600301600081548092919060010191905055508260066000600754815260200190815260200160002060003373ffffffffffffffffffffffffffffffffffffffff1673ffffffffffffffffffffffffffffffffffffffff16815260200190815260200160002081905550600760008154809291906001019190505550505050565b600115156000808673ffffffffffffffffffffffffffffffffffffffff1673ffffffffffffffffffffffffffffffffffffffff16815260200190815260200160002060050160009054906101000a900460ff16151514151515611f84576040517f08c379a00000000000000000000000000000000000000000000000000000000081526004018080602001828103825260228152602001807f5468c3a06e68207669c3aa6e206ec3a07920c491c3a32074e1bb936e2074e1ba81526020017fa16900000000000000000000000000000000000000000000000000000000000081525060400191505060405180910390fd5b60016000815480929190600101919050555060c0604051908101604052808481526020018381526020018281526020016000815260200160008152602001600115158152506000808673ffffffffffffffffffffffffffffffffffffffff1673ffffffffffffffffffffffffffffffffffffffff1681526020019081526020016000206000820151816000019080519060200190612023929190613153565b506020820151816001019080519060200190612040929190613153565b50604082015181600201908051906020019061205d929190613153565b50606082015181600301556080820151816004015560a08201518160050160006101000a81548160ff02191690831515021790555090505050505050565b6000600154905090565b6008602052806000526040600020600091509050806000015490806001018054600181600116156101000203166002900480601f0160208091040260200160405190810160405280929190818152602001828054600181600116156101000203166002900480156121575780601f1061212c57610100808354040283529160200191612157565b820191906000526020600020905b81548152906001019060200180831161213a57829003601f168201915b5050505050908060020154908060030154908060040154908060050154908060060160009054906101000a900473ffffffffffffffffffffffffffffffffffffffff16905087565b6006602052816000526040600020602052806000526040600020600091509150505481565b600115156000808373ffffffffffffffffffffffffffffffffffffffff1673ffffffffffffffffffffffffffffffffffffffff16815260200190815260200160002060050160009054906101000a900460ff16151514151561228e576040517f08c379a00000000000000000000000000000000000000000000000000000000081526004018080602001828103825260188152602001807f53656e736f72206368c6b0612074e1bb936e2074e1baa169000000000000000081525060200191505060405180910390fd5b60036000815480929190600190039190505550600260008273ffffffffffffffffffffffffffffffffffffffff1673ffffffffffffffffffffffffffffffffffffffff1681526020019081526020016000206000808201600090556001820160006122f9919061310b565b6002820160006101000a81549060ff0219169055505050565b3373ffffffffffffffffffffffffffffffffffffffff166004600083815260200190815260200160002060000160009054906101000a900473ffffffffffffffffffffffffffffffffffffffff1673ffffffffffffffffffffffffffffffffffffffff16141515612411576040517f08c379a000000000000000000000000000000000000000000000000000000000815260040180806020018281038252602c8152602001807f4368e1bb89206368e1bba72073e1bb9f2068e1bbaf75206de1bb9b6920c491c681526020017fb0e1bba36320c491e1bb9569000000000000000000000000000000000000000081525060400191505060405180910390fd5b600115156000803373ffffffffffffffffffffffffffffffffffffffff1673ffffffffffffffffffffffffffffffffffffffff16815260200190815260200160002060050160009054906101000a900460ff161515141515612501576040517f08c379a00000000000000000000000000000000000000000000000000000000081526004018080602001828103825260228152602001807f4368e1bb892063687579e1bb836e20c491e1babf6e207468c3a06e68207669c381526020017faa6e00000000000000000000000000000000000000000000000000000000000081525060400191505060405180910390fd5b816004600083815260200190815260200160002060000160006101000a81548173ffffffffffffffffffffffffffffffffffffffff021916908373ffffffffffffffffffffffffffffffffffffffff1602179055505050565b60011515600260008573ffffffffffffffffffffffffffffffffffffffff1673ffffffffffffffffffffffffffffffffffffffff16815260200190815260200160002060020160009054906101000a900460ff16151514151515612626576040517f08c379a000000000000000000000000000000000000000000000000000000000815260040180806020018281038252601c8152602001807f53656e736f72206ec3a07920c491c3a32074e1bb936e2074e1baa1690000000081525060200191505060405180910390fd5b60036000815480929190600101919050555060606040519081016040528083815260200182815260200160011515815250600260008573ffffffffffffffffffffffffffffffffffffffff1673ffffffffffffffffffffffffffffffffffffffff1681526020019081526020016000206000820151816000015560208201518160010190805190602001906126bc929190613153565b5060408201518160020160006101000a81548160ff021916908315150217905550905050505050565b600a602052806000526040600020600091509050806000015490806001018054600181600116156101000203166002900480601f0160208091040260200160405190810160405280929190818152602001828054600181600116156101000203166002900480156127975780601f1061276c57610100808354040283529160200191612797565b820191906000526020600020905b81548152906001019060200180831161277a57829003601f168201915b5050505050908060020154908060030154908060040160009054906101000a900473ffffffffffffffffffffffffffffffffffffffff16905085565b6002602052806000526040600020600091509050806000015490806001018054600181600116156101000203166002900480601f0160208091040260200160405190810160405280929190818152602001828054600181600116156101000203166002900480156128855780601f1061285a57610100808354040283529160200191612885565b820191906000526020600020905b81548152906001019060200180831161286857829003601f168201915b5050505050908060020160009054906101000a900460ff16905083565b6000600354905090565b6000600954905090565b600115156000803373ffffffffffffffffffffffffffffffffffffffff1673ffffffffffffffffffffffffffffffffffffffff16815260200190815260200160002060050160009054906101000a900460ff1615151415156129a6576040517f08c379a00000000000000000000000000000000000000000000000000000000081526004018080602001828103825260278152602001807f4368e1bb89207468c3a06e68207669c3aa6e206de1bb9b6920c491c6b0e1bba381526020017f6320636865636b0000000000000000000000000000000000000000000000000081525060400191505060405180910390fd5b816004600085815260200190815260200160002060070160006101000a81548160ff0219169083151502179055506129de8382612d52565b505050565b6000600554905090565b600080606060016004600086815260200190815260200160002060050154039150612a1784611571565b90508082815181101515612a2757fe5b9060200190602002015192505050919050565b6000600b54905090565b3373ffffffffffffffffffffffffffffffffffffffff166004600083815260200190815260200160002060000160009054906101000a900473ffffffffffffffffffffffffffffffffffffffff1673ffffffffffffffffffffffffffffffffffffffff16141515612b43576040517f08c379a000000000000000000000000000000000000000000000000000000000815260040180806020018281038252602c8152602001807f4368e1bb89206368e1bba72073e1bb9f2068e1bbaf75206de1bb9b6920c491c681526020017fb0e1bba36320c491e1bb9569000000000000000000000000000000000000000081525060400191505060405180910390fd5b60011515600260008473ffffffffffffffffffffffffffffffffffffffff1673ffffffffffffffffffffffffffffffffffffffff16815260200190815260200160002060020160009054906101000a900460ff161515141515612c34576040517f08c379a000000000000000000000000000000000000000000000000000000000815260040180806020018281038252602a8152602001807f4368e1bb8920c491e1bb95692063e1baa36d206269e1babf6e2074726f6e672081526020017f64616e682073c3a163680000000000000000000000000000000000000000000081525060400191505060405180910390fd5b816004600083815260200190815260200160002060010160006101000a81548173ffffffffffffffffffffffffffffffffffffffff021916908373ffffffffffffffffffffffffffffffffffffffff1602179055505050565b6060600060606000806004600087815260200190815260200160002060060154935083604051908082528060200260200182016040528015612cde5781602001602082028038833980820191505090505b50925060009150600090505b60095481111515612d46578560086000838152602001908152602001600020600001541415612d3957808383815181101515612d2257fe5b906020019060200201818152505081806001019250505b8080600101915050612cea565b82945050505050919050565b60006060600115156000803373ffffffffffffffffffffffffffffffffffffffff1673ffffffffffffffffffffffffffffffffffffffff16815260200190815260200160002060050160009054906101000a900460ff161515141515612e20576040517f08c379a00000000000000000000000000000000000000000000000000000000081526004018080602001828103825260128152602001807f4368e1bb89207468c3a06e68207669c3aa6e000000000000000000000000000081525060200191505060405180910390fd5b600b6000815480929190600101919050555060016004600086815260200190815260200160002060050154039150612e5784611571565b905043600a60008385815181101515612e6c57fe5b9060200190602002015181526020019081526020016000206003018190555060a060405190810160405280858152602001848152602001438152602001600081526020013373ffffffffffffffffffffffffffffffffffffffff16815250600a6000600b548152602001908152602001600020600082015181600001556020820151816001019080519060200190612f05929190613153565b50604082015181600201556060820151816003015560808201518160040160006101000a81548173ffffffffffffffffffffffffffffffffffffffff021916908373ffffffffffffffffffffffffffffffffffffffff160217905550905050600460008581526020019081526020016000206005016000815480929190600101919050555050505050565b6060600060606000806000808773ffffffffffffffffffffffffffffffffffffffff1673ffffffffffffffffffffffffffffffffffffffff1681526020019081526020016000206003015493508360405190808252806020026020018201604052801561300c5781602001602082028038833980820191505090505b50925060009150600090505b6007548110156130ff5760006006600083815260200190815260200160002060008873ffffffffffffffffffffffffffffffffffffffff1673ffffffffffffffffffffffffffffffffffffffff168152602001908152602001600020541415156130f2576006600082815260200190815260200160002060008773ffffffffffffffffffffffffffffffffffffffff1673ffffffffffffffffffffffffffffffffffffffff1681526020019081526020016000205483838151811015156130db57fe5b906020019060200201818152505081806001019250505b8080600101915050613018565b82945050505050919050565b50805460018160011615610100020316600290046000825580601f106131315750613150565b601f01602090049060005260206000209081019061314f91906131d3565b5b50565b828054600181600116156101000203166002900490600052602060002090601f016020900481019282601f1061319457805160ff19168380011785556131c2565b828001600101855582156131c2579182015b828111156131c15782518255916020019190600101906131a6565b5b5090506131cf91906131d3565b5090565b6131f591905b808211156131f15760008160009055506001016131d9565b5090565b905600a165627a7a72305820d79b5fa46ac1c3415fc871c616a937c77814747caff317f0f8da5433d18200fe0029",
  "source": "pragma solidity ^0.4.18;\r\n\r\ncontract packageTracker {\r\n    \r\n    constructor() public {}\r\n    \r\n    //Danh sch cc bin\r\n    struct member {\r\n        string typeMember; //1. loi thnh vin: Nh sn xut, ngi tiu dng, vn chuyn,... \r\n        string nameMember; //2. tn thnh vin\r\n        string infoName; //3. miu t thnh vin\r\n        uint countPackOwner; //4. s pack ang s hu\r\n        uint countPackLogistic; //5. s pack ang lu tr hoc vn chuyn\r\n        bool isMember; //6. true nu l thnh vin trong danh sch\r\n    }\r\n    struct sensor {\r\n        uint sId; //m cm bin\r\n        string infoSensor; //thng tin cm bin\r\n        bool isSensor; //true nu l cm bin trong danh sch\r\n    }\r\n    struct package {\r\n        address owner; //1. a ch ch s hu\r\n        address ofSensor; //2. a ch cm bin t trong gi hng\r\n        address logictis; //3. a ch n v lu tr, vn chuyn\r\n        string namePack; //4. tn gi hng\r\n        string infoPack; //5. thng tin gi hng\r\n        uint countState; //6. m s trng thi  qua\r\n        uint countEvents; //7. m s lng s kin\r\n        bool checkPack; //8. true nu c kim tra Ok\r\n        bool isReal; //9. true nu hng nm trong danh sch, hng tht\r\n    }\r\n    struct track {\r\n        uint pIdTrack; //m hng ha c track\r\n        string typeEnvoriment; //kiu mi trng o: nhit ,  m\r\n        uint valueEnvoriment; //gi tr mi trng\r\n        int long; //V tr kinh  xy ra s kin\r\n        int lat; //V tr v  xy ra s kin\r\n        //uint timeStamp; //Thi gian xy ra s kin s dng now or block.timestamp; cnh bo bo mt\r\n        uint blockNumber; //v tr Block s kin c ghi li\r\n        address tracker; //a ch ngi gi s kin\r\n    }\r\n\r\n    struct state {\r\n        uint pIdstate; //m hng ha trng thi\r\n        string statePack; //trng thi\r\n        uint blockStart; //thi gian bt u trng thi\r\n        uint blockEnd; //thi gian kt thc trng thi\r\n        address getterState; //a ch ngi to trng thi\r\n    }\r\n\r\n    mapping (address => member) public memberList; //List cc thnh vin\r\n    uint memberCounter;\r\n    mapping (address => sensor) public sensorList; //List cc cm bin\r\n    uint sensorCounter;\r\n    mapping (uint => package) public packageList; //List cc hng ha\r\n    uint packageCounter; \r\n    mapping (uint => mapping(address => uint)) public packOfOwnerList; //List cc hng ha thuc ch s hu\r\n    uint packOfOwnerCounter;\r\n    mapping (uint => track) public eventList; //List cc s kin\r\n    uint eventCounter; \r\n    mapping (uint => state) public stateList; //List cc s kin\r\n    uint stateCounter;\r\n\r\n    // Danh sch cc event h thng\r\n    event create_package (address _ower, string _namePack, string _infoPack);\r\n    event transport_package (address _ower, address _logictis, string _namePack, string _message);\r\n    event sell_package (address _ower, string _namePack, string _message);\r\n\r\n    // Danh sch cc hm\r\n    function createMember(address _addrMember, string _typeMember, string _nameMember, string _infoMember) public {\r\n        require(memberList[_addrMember].isMember != true, \"Thnh vin ny  tn ti\");\r\n        memberCounter ++;\r\n        memberList[_addrMember] = member(_typeMember, _nameMember, _infoMember, uint(0), uint(0), true);\r\n    }\r\n\r\n    function deleteMember(address _addrMember) public {\r\n        require(memberList[_addrMember].isMember == true, \"Thnh vin cha tn ti\");\r\n        memberCounter --;\r\n        delete memberList[_addrMember];\r\n    }\r\n\r\n    function getNumberOfMember() public view returns (uint) {\r\n        return memberCounter;\r\n    }\r\n\r\n    function createSensor(address _addrSensor, uint _sId, string _infoSensor) public {\r\n        require(sensorList[_addrSensor].isSensor != true, \"Sensor ny  tn ti\");\r\n        sensorCounter ++;\r\n        sensorList[_addrSensor] = sensor(_sId, _infoSensor, true);\r\n    }\r\n\r\n    function deleteSensor(address _addrSensor) public {\r\n        require(memberList[_addrSensor].isMember == true, \"Sensor cha tn ti\");\r\n        sensorCounter --;\r\n        delete sensorList[_addrSensor];\r\n    }\r\n\r\n    function getNumberOfSensor() public view returns (uint) {\r\n        return sensorCounter;\r\n    }\r\n\r\n    function createPackage(uint _pId, string _namePack, string _infoPack) public {\r\n        require(packageList[_pId].isReal != true, \"M hng ha l duy nht\");\r\n        packageCounter ++;\r\n        packageList[_pId] = package(msg.sender, 0x0, 0x0, _namePack, _infoPack, uint(1), uint(1), true, true);\r\n        stateCounter ++;\r\n        stateList[stateCounter] = state(_pId, \"Khi to\", block.number, 0x0, msg.sender);\r\n        memberList[msg.sender].countPackOwner ++;\r\n        packOfOwnerList[packOfOwnerCounter][msg.sender] = _pId;\r\n        packOfOwnerCounter++;\r\n    }\r\n\r\n    function getPackOfOwner(address _mId) public view returns (uint[]) {\r\n        uint counter = memberList[_mId].countPackOwner; \r\n        uint[] memory packs = new uint[](counter);\r\n        uint j = 0;\r\n        for(uint i = 0; i < packOfOwnerCounter; i++) {\r\n            if(packOfOwnerList[i][_mId] != 0x0) {\r\n                packs[j] = packOfOwnerList[i][_mId];\r\n                j++;\r\n            }\r\n        }\r\n        return packs;\r\n    }\r\n\r\n    function getNumberOfPackage() public view returns (uint) {\r\n        return packageCounter;\r\n    }\r\n\r\n    function createEvent(uint _pIdTrack, string _typeEnv, uint _valueEnv, int _long, int _lat) public {\r\n        eventCounter ++;\r\n        eventList[eventCounter] = track(_pIdTrack, _typeEnv, _valueEnv, _long, _lat, block.number, msg.sender);\r\n        packageList[_pIdTrack].countEvents ++;\r\n    }\r\n\r\n    function getEventsOfPack(uint _pId) public view returns (uint[]) {\r\n        uint counter = packageList[_pId].countEvents; \r\n        uint[] memory events = new uint[](counter);\r\n        uint numberOfEvents = 0;\r\n        for (uint i = 0; i <= eventCounter; i++) {\r\n            if(eventList[i].pIdTrack == _pId) {\r\n                events[numberOfEvents] = i;\r\n                numberOfEvents++;\r\n            }\r\n        }\r\n        return events;\r\n    }\r\n\r\n    function getTotalOfEvent() public view returns (uint) {\r\n        return eventCounter;\r\n    }\r\n\r\n    function changeState(uint _pIdState, string _state) public {\r\n        require(memberList[msg.sender].isMember == true, \"Ch thnh vin\");\r\n\r\n        stateCounter ++;\r\n        uint last = packageList[_pIdState].countState - 1;\r\n        uint[] memory statesOfPack = getStatesOfPack(_pIdState);\r\n        stateList[statesOfPack[last]].blockEnd = block.number; \r\n        stateList[stateCounter] = state(_pIdState, _state, block.number, 0x0, msg.sender);\r\n        packageList[_pIdState].countState ++;\r\n    }\r\n\r\n    function getStatesOfPack(uint _pId) public view returns (uint[]) {\r\n        uint counter = packageList[_pId].countState; \r\n        uint[] memory states = new uint[](counter);\r\n        uint numberOfStates = 0;\r\n        for (uint i = 0; i <= stateCounter; i++) {\r\n            if(stateList[i].pIdstate == _pId ) {\r\n                states[numberOfStates] = i;\r\n                numberOfStates++;\r\n            }\r\n        }\r\n        return states;\r\n    }\r\n\r\n    function getLastState(uint _pId) public view returns (uint) {\r\n        uint lastState = packageList[_pId].countState - 1;\r\n        uint[] memory statesOfPack = getStatesOfPack(_pId);\r\n\r\n        return statesOfPack[lastState];\r\n        \r\n    }\r\n    function getTotalOfState() public view returns (uint) {\r\n        return stateCounter;\r\n    }\r\n\r\n    function changeOwner(address _toOwner, uint _pid) public {\r\n        require(packageList[_pid].owner == msg.sender, \"Ch ch s hu mi c i\");\r\n        require(memberList[msg.sender].isMember == true, \"Ch chuyn n thnh vin\");\r\n        packageList[_pid].owner = _toOwner;\r\n    }\r\n\r\n    function changeSensor(address _toSensor, uint _pid) public {\r\n        require(packageList[_pid].owner == msg.sender, \"Ch ch s hu mi c i\");\r\n        require(sensorList[_toSensor].isSensor == true, \"Ch i cm bin trong danh sch\");\r\n        packageList[_pid].ofSensor = _toSensor;\r\n    }\r\n\r\n    function changeLogictis(address _toLogictis, uint _pid) public {\r\n        require(packageList[_pid].owner == msg.sender || packageList[_pid].logictis == msg.sender, \"Khng c quyn i\");\r\n        require(memberList[msg.sender].isMember == true, \"Ch chuyn n thnh vin\");\r\n        packageList[_pid].owner = _toLogictis;\r\n    }\r\n\r\n    function checkPackage(uint _pId, bool _check, string _message) public {\r\n        require(memberList[msg.sender].isMember == true, \"Ch thnh vin mi c check\");\r\n        packageList[_pId].checkPack = _check;\r\n        changeState(_pId, _message);      \r\n    }\r\n\r\n}",
  "sourcePath": "D:\\ProjectEthereum\\packageTracker\\contracts\\packageTracker.sol",
  "compiler": {
    "name": "solc",
    "version": "0.4.24+commit.e67f0147.Emscripten.clang"
  },
  "schemaVersion": "2.0.1",
  "updatedAt": "2018-07-17T09:34:15.841Z"
}